:100000000C9434000C9451000C9451000C94510049
:100010000C9451000C9451000C9451000C9451001C
:100020000C9451000C9451000C9451000C9451000C
:100030000C9451000C9451000C9451000C945100FC
:100040000C9451000C9451000C9451000C945100EC
:100050000C9451000C9451000C9451000C945100DC
:100060000C9451000C94510011241FBECFEFD8E026
:10007000DEBFCDBF11E0A0E0B1E0ECE3F0E102C0F3
:1000800005900D92AC33B107D9F721E0ACE3B1E0B4
:1000900001C01D92AA34B207E1F70E9418050C9422
:1000A0001C080C940000CF93C82F8A3019F48DE0FF
:1000B0000E9453008091C00085FFFCCFC093C60012
:1000C00090E080E0CF9108951092C50087E680937C
:1000D000C40088E08093C10086E08093C200089548
:1000E000813011F42A9808952A9A0895882311F0EE
:1000F000299A08952998089584B18C6284B98DB5A0
:100100008DBD8CB581658CBD089584B1866084B940
:1001100029982A9A0C947C008EBD0DB407FEFDCF61
:100120008EB508950C948C000F931F93CF93DF939B
:10013000EC018C01060F171FC017D10729F4DF91BE
:10014000CF911F910F91089589910E948C00F4CF57
:100150000F931F93CF93DF93EC018C01060F171FB2
:10016000C017D10729F4DF91CF911F910F91089506
:1001700080E00E948C008993F3CFEF92FF920F935F
:100180001F93CF93DF937C01EB018B01040F151FAD
:10019000C017D10739F4DF91CF911F910F91FF90D4
:1001A000EF900895F70181917F010E948C0089935F
:1001B000EFCF0C947C000F931F93CF938C01C62F2D
:1001C00080E00E94700080912C01813079F480EBF6
:1001D00080934301809143010E949200C11108C0A5
:1001E00081E0CF911F910F910C94700080EAF0CFC5
:1001F000F80181918F01809343010E949200C150C8
:10020000EDCFCF93C82F8823A1F0813019F58091CD
:100210002D018330F9F480E00E94700081EE80931C
:1002200043010E94920081E00E9470008C2FCF91C8
:10023000089580912D018430C9F780E00E947000FC
:1002400082EE809343010E94920081E00E94700040
:10025000C1E0ECCFC0E0EACF019708F40895EFE9E0
:10026000FFE03197F1F700C00000F6CFFF920F9347
:100270001F93CF93DF93D82F8B01C42FF22E80E0F2
:100280000E947000D09343018D2F0E9492008FEF47
:1002900080934301C1110AC0F11011C081E0DF91C8
:1002A000CF911F910F91FF900C94700080914301AA
:1002B0000E949200F80181938F01C150EBCFDF9132
:1002C000CF911F910F91FF9008950F931F93CF939C
:1002D000DF938C01C62FD42F20E041E062E471E06F
:1002E00087E00E9436018091420185FD16C0809111
:1002F0002D01833091F4D0932C0180913C01813009
:1003000011F4C0913D016C2FC8010E94DB0081E017
:10031000DF91CF911F910F91089580E0F9CFFF9267
:100320000F931F93CF93DF93C82F8B01D42FF22EFF
:1003300080E00E9470008C2F8062809343010E94B5
:100340009200D1110AC0F11011C081E0DF91CF916C
:100350001F910F91FF900C947000F80181918F0113
:10036000809343010E949200D150EBCFDF91CF9157
:100370001F910F91FF90089520E041E062E471E049
:100380008DE10E943601809142018160809341019C
:1003900020E041E061E471E08DE10C948F01813057
:1003A00011F40C94BC0120E041E062E471E08DE1C5
:1003B0000E943601809142018E7F8093410120E0AE
:1003C00041E061E471E08DE10C948F0120E041E0B7
:1003D00062E471E087E00E9436018091420185FF6E
:1003E00009C020E041E062E471E087E00E948F01F3
:1003F00081E0089584FF09C020E041E062E471E0FB
:1004000087E00E948F018FEF089580E008950F9399
:100410001F93CF93DF938C01C62F80912D018430E1
:1004200009F049C020E041E062E471E087E00E9409
:1004300036018091420186FF44C080913C018111C8
:1004400002C0C0913D0180E00E94700081E680936F
:1004500043010E949200DFEFC11123C081E00E949E
:10046000700020E041E062E471E087E10E94360123
:100470008091420180FF13C020E041E062E471E01E
:1004800087E00E943601809142018064809341019F
:1004900020E041E061E471E087E00E948F0181E0AB
:1004A0000BC0D09343018FEF0E949200F80181931B
:1004B0008F01C150D1CF80E0DF91CF911F910F917B
:1004C000089582E0F9CF9C0190E02B3F310520F0A8
:1004D0009F5F903181F49FE09295907F8FEF860F20
:1004E0008F3060F09093410120E041E061E471E0E1
:1004F00084E00C948F012A5F3109E7CF962BF2CF6D
:10050000873060F421E030E0A90102C0440F551F9C
:100510008A95E2F7CA0181508093410120E041E0D1
:1005200061E471E081E00C948F01CF93DF93D82FC9
:10053000C62F862F0E94800220E041E062E471E035
:100540008DE10E94360180914201D13011F5846025
:100550008093410120E041E061E471E08DE10E947F
:100560008F01C73048F481E090E001C0880FCA9540
:10057000EAF781508093410120E041E061E471E0BD
:100580008CE10E948F0181E080933C01DF91CF914B
:1005900008958B7F8093410120E041E061E471E0A8
:1005A0008DE10E948F0110923C01F0CF8150990B98
:1005B00025E0289FB001299F700D1124625F7E4FB6
:1005C00020E040913F0180E10C948F010F931F9335
:1005D000CF930EE011E0CAE020E040913F01B80166
:1005E0008C2F0E948F01CF5F0B5F1F4FC031A1F78F
:1005F000CF911F910F9108950F931F93CF93DF9386
:100600001F92CDB7DEB7898301E1060F11E1101308
:1006100009C0898180933D010F90DF91CF911F9197
:100620000F91089520E041E0BE016F5F7F4F812F61
:100630000E948F011F5FEBCF21E030E001C0220F4D
:100640008A95EAF721502093410120E041E061E4DE
:1006500071E082E00C948F01CF93C82F8DEF8C0F47
:10066000833078F48EEF8C0F8093400120E041E0DE
:1006700060E471E083E00E948F01C0933F01CF915D
:10068000089583E0F1CFCF93DF93EC0120E041E0C8
:1006900062E471E086E00E94360180914201877D2C
:1006A00080934201CA3FD10579F0C03DD74009F49B
:1006B00088608093410120E041E061E471E086E0E0
:1006C000DF91CF910C948F018062F3CFCF93C82F2D
:1006D00020E041E062E471E086E00E943601809112
:1006E0004201897F80934201CC3079F0C23119F008
:1006F000C1110DC086608093410120E041E061E4BA
:1007000071E086E0CF910C948F018260F4CF846019
:10071000F2CFCF93DF931F92CDB7DEB79FEF980F45
:100720009D3768F4898320E041E0BE016F5F7F4F11
:1007300085E00E948F010F90DF91CF91089581E0B5
:10074000F1CF1F93CF93DF93182FD62FC42F20E024
:1007500041E062E471E080E00E9436018091420154
:100760008064111103C0809141018F7B809341010E
:1007700080914101DD23A1F080628093410180914D
:100780004101CC2379F080618093410120E041E078
:1007900061E471E080E0DF91CF911F910C948F01B3
:1007A0008F7DEBCF8F7EF0CFCF93DF93D82FC62FE7
:1007B00020E041E062E471E080E00E943601809137
:1007C00042018860D11103C080914101877F8093ED
:1007D000410180914101C23061F484608093410104
:1007E00020E041E061E471E080E0DF91CF910C9482
:1007F0008F018B7FF3CFCF93C82F20E041E062E4DD
:1008000071E080E00E943601C430D8F4C23048F56F
:10081000C13001F180E00E947600809142018D7F1D
:100820008093410182E090E00E942C0120E041E0B1
:1008300061E471E080E00E948F01C0932D01CF91AF
:100840000895C43039F781E00E947600809142011A
:100850008360E6CF80E00E94760080914201826052
:10086000DFCF81E00E947600809142018E7FF7CF3A
:10087000CF9381E080933E0180E00E94760088E083
:100880008093410120E041E061E471E080E00E945A
:100890008F018FE38093410120E041E061E471E04A
:1008A00081E00E948F011092410120E041E061E46B
:1008B00071E082E00E948F0183E08093410120E09B
:1008C00041E061E471E00E948F0182E08093410188
:1008D00020E041E061E471E085E00E948F01CEE01C
:1008E000C093410120E041E061E471E086E00E94B4
:1008F0008F01C093410120E041E061E471E087E0B5
:100900000E948F0183E00E94FB0381E00E940101AD
:1009100084E00E94FB0380E00E94010120E041E0AE
:1009200062E471E087E00E943601809142018067B5
:100930008093410120E041E061E471E087E00E94A2
:100940008F0141E061E081E00E94A10361E081E06C
:100950000E94D40385E00E942C0388EE93E00E945D
:10096000430386E00E94660380E20E94890381E0DF
:100970000E941C0361E081E00E94FC0262E084EFBF
:1009800091E00E94630281E00E94800261E080E0C9
:100990000E949502CF910C94BC01CF93DF93C82F96
:1009A000D62F0E947C000E94850086E990E00E947C
:1009B0002C01D13021F080913E01811102C00E94B2
:1009C0003804C130D1F060F0C23041F580E00E94BF
:1009D000FB0341E061E081E00E94A10381E009C0E6
:1009E00080E00E94FB0340E060E081E00E94A10300
:1009F00083E0DF91CF910C94FB0380E00E94FB0326
:100A000041E061E080E00E94A10384E00E94FB03DA
:100A100084E690E0DF91CF910C942C0180E00E945D
:100A2000FB0341E061E081E0DF91CF910C94A103F1
:100A3000CF93DF931F92CDB7DEB70E94640080E0B2
:100A400091E0909347018093460161E081E00E942C
:100A5000CD0486E00E94660388E20E9489030E941A
:100A6000E60281E00E941C0361E081E00E94FC023A
:100A700084E690E00E942C010EE211E061E0CE01DC
:100A800001960E9407028130C9F789811F928F93D6
:100A90001F930F930E9451050F900F900F900F908E
:100AA000EDCFB0E0A0E0E7E5F5E00C94F507AE018E
:100AB0004B5F5F4FFA0161917191AF0180914601E7
:100AC000909147010E946705E2E00C941108ABE0A9
:100AD000B0E0EDE6F5E00C94E5077C013B018A010E
:100AE000FC0117821682838181FFC8C1CE01019665
:100AF0005C01F7019381F30193FD859193FF81914F
:100B00003F01882309F453C1853239F493FD85915F
:100B100093FF81913F01853229F4B70190E00E9453
:100B20005707E7CF912C212C312CFFE1F31538F03A
:100B30008B3211F190F4803209F1833229F137FCC4
:100B40003CC020ED280F2A3050F536FE20C08AE048
:100B5000989E200D1124922E06C08D3291F0803384
:100B600071F7689430F8F30193FD859193FF8191BB
:100B70003F018111DACF21C0689431F8689432F8CE
:100B8000F2CF689433F8EFCF689434F8ECCFEAE012
:100B90002E9E200D1124222E689435F8E4CF8E323B
:100BA00029F436FC04C1689436F8DDCF8C3619F48C
:100BB000689437F8D8CF8836B1F2982F9F7D955436
:100BC0009330E0F08336A1F18337C1F1833509F02A
:100BD00063C02801F2E04F0E511CF801C080D180A3
:100BE000692D70E036FC02C06FEF7FEFC6010E94F6
:100BF00041074C01689437F882010AC00C5F1F4F0F
:100C0000FFE3F98388248394912C6501E89437F8F5
:100C100033FE2DC0522C8114910471F5552009F436
:100C200068CFB70180E290E00E9457075A94F6CF50
:100C3000F801808189830E5F1F4FE4CF2801F2E025
:100C40004F0E511CF801C080D180692D70E036FC38
:100C500002C06FEF7FEFC6010E944C074C0182017A
:100C6000D5CFB70180E290E00E9457072A9428145C
:100C7000190409F0B0F7CECFF60137FC859137FEA5
:100C800081916F01B70190E00E94570751105A946B
:100C9000F1E08F1A9108BFCF843619F0893609F038
:100CA00077C0F80137FE6BC06081718182819381CA
:100CB0000C5F1F4FF32DFF763F2E97FF09C09095D5
:100CC0008095709561957F4F8F4F9F4F689437F84F
:100CD0002AE030E0A5010E948707C82ECA188C2C94
:100CE000432C36FE0CC0E89440F8C91440F434FE9E
:100CF00005C032FC03C0F32DFE7E4F2E892C44FE2E
:100D000095C0FE01EC0DF11D8081803309F087C094
:100D1000242D297E422E842D8870582E43FC95C0A8
:100D200040FE8FC09C2C821418F42C0C922C981826
:100D300044FE91C0B70180E390E00E94570742FE55
:100D400009C088E790E041FE02C088E590E0B70165
:100D50000E945707C91408F48AC0CA94D12C9FEF87
:100D6000C91AD90ACA0CDB1CF60182916F01B701BE
:100D700090E00E945707AC14BD04B1F74FCF6081DB
:100D80007181072E000C880B990B0E5F1F4F92CFBD
:100D9000D32CE894D4F82AE030E0853739F1232DBC
:100DA000297FD22E8F3601F148F48835A9F0F7015A
:100DB000868197812B96E2E10C940108803749F0F7
:100DC0008837A9F7D4FE02C06894D2F820E130E059
:100DD0000DC06894D4F8F6CF34FE03C0822F86602D
:100DE000D82E20E132E002C028E030E0F801D7FE42
:100DF0000FC060817181828193810C5F1F4FA501BB
:100E00000E948707C82ECA183D2CE89437F867CF90
:100E10006081718190E080E00E5F1F4FF0CF42FC57
:100E200002C0839478CF8394839475CF842D867881
:100E300009F471CFF6CFB70180E290E00E94570726
:100E400083948214C0F3512C73CF522C58188214FF
:100E500008F46ECFF8CF842D867809F47BCF8BE22F
:100E600041FE80E247FC8DE2B70190E071CFB7010F
:100E700080E390E00E9457079A946CCF8FEF9FEF2A
:100E800099CFFC010590615070400110D8F7809512
:100E900090958E0F9F1F0895FC0161507040019046
:100EA0000110D8F7809590958E0F9F1F08950F938E
:100EB0001F93CF93DF93182F092FEB018B8181FDB7
:100EC00009C01FEF0FEF812F902FDF91CF911F915E
:100ED0000F91089582FF14C02E813F818C819D81E6
:100EE000281739073CF4E881F981CF0101969983ED
:100EF000888310838E819F8101969F838E83E3CFA9
:100F0000E885F985812F0995892BA1F3DACFFA01BC
:100F1000AA27283051F1203181F1E8946F936E7F38
:100F20006E5F7F4F8F4F9F4FAF4FB1E03ED0B4E029
:100F30003CD0670F781F891F9A1FA11D680F791F6A
:100F40008A1F911DA11D6A0F711D811D911DA11D7B
:100F500020D009F468943F912AE0269F112430198B
:100F6000305D3193DEF6CF010895462F4770405D26
:100F70004193B3E00FD0C9F7F6CF462F4F70405DD5
:100F80004A3318F0495D31FD4052419302D0A9F730
:100F9000EACFB4E0A6959795879577956795BA952A
:100FA000C9F700976105710508959B01AC010A2EF0
:100FB00006945795479537952795BA95C9F7620FC7
:100FC000731F841F951FA01D08952F923F924F926B
:100FD0005F926F927F928F929F92AF92BF92CF92C9
:100FE000DF92EF92FF920F931F93CF93DF93CDB7D2
:100FF000DEB7CA1BDB0B0FB6F894DEBF0FBECDBF4A
:1010000009942A88398848885F846E847D848C841A
:101010009B84AA84B984C884DF80EE80FD800C8123
:101020001B81AA81B981CE0FD11D0FB6F894DEBF06
:0C1030000FBECDBFED010895F894FFCF76
:10103C00000000020000000053000000000020C36C
:10104C00C2C1A020C3C2C1A120C3C2C1A220C3C2BD
:10105C00C1A320C3C2C1A420C3C2C1A5010552654E
:0C106C006365697665643A2025640A001B
:00000001FF
