:100000000C9434000C9451000C9451000C94510049
:100010000C9451000C9451000C9451000C9451001C
:100020000C9451000C9451000C9451000C9451000C
:100030000C9451000C9451000C9451000C945100FC
:100040000C9451000C9451000C9451000C945100EC
:100050000C9451000C9451000C9451000C945100DC
:100060000C9451000C94510011241FBECFEFD8E026
:10007000DEBFCDBF11E0A0E0B1E0ECE4FAE002C0E9
:1000800005900D92A032B107D9F721E0A0E2B1E0CE
:1000900001C01D92A832B207E1F70E94FB040C9444
:1000A00024050C940000813011F42A9808952A9AAE
:1000B0000895882311F0299A08952998089584B104
:1000C0008C6284B98DB58DBD8CB581658CBD08956C
:1000D00084B1866084B929982A9A0C945F008EBDF9
:1000E0000DB407FEFDCF8EB508950C946F000F93ED
:1000F0001F93CF93DF93EC018C01060F171FC017DE
:10010000D10729F4DF91CF911F910F910895899123
:100110000E946F00F4CF0F931F93CF93DF93EC01F6
:100120008C01060F171FC017D10729F4DF91CF915B
:100130001F910F91089580E00E946F008993F3CF83
:10014000EF92FF920F931F93CF93DF937C01EB010C
:100150008B01040F151FC017D10739F4DF91CF9120
:100160001F910F91FF90EF900895F70181917F010A
:100170000E946F008993EFCF0C945F000F931F9341
:10018000CF938C01C62F80E00E94530080911E0106
:10019000813079F480EB80932701809127010E94C0
:1001A0007500C11108C081E0CF911F910F910C948F
:1001B000530080EAF0CFF80181918F0180932701ED
:1001C0000E947500C150EDCFCF93C82F8823A1F0B6
:1001D000813019F580911F018330F9F480E00E948D
:1001E000530081EE809327010E94750081E00E94F8
:1001F00053008C2FCF91089580911F018430C9F74F
:1002000080E00E94530082EE809327010E947500D7
:1002100081E00E945300C1E0ECCFC0E0EACF01973B
:1002200008F40895EFE9FFE03197F1F700C000000E
:10023000F6CFFF920F931F93CF93DF93D82F8B01AD
:10024000C42FF22E80E00E945300D09327018D2FFF
:100250000E9475008FEF80932701C1110AC0F11031
:1002600011C081E0DF91CF911F910F91FF900C940D
:100270005300809127010E947500F80181938F013E
:10028000C150EBCFDF91CF911F910F91FF90089557
:100290000F931F93CF93DF938C01C62FD42F20E0B1
:1002A00041E066E271E087E00E9419018091260139
:1002B00085FD16C080911F01833091F4D0931E01FB
:1002C00080912001813011F4C09121016C2FC8016F
:1002D0000E94BE0081E0DF91CF911F910F910895A0
:1002E00080E0F9CFFF920F931F93CF93DF93C82F36
:1002F0008B01D42FF22E80E00E9453008C2F80625D
:10030000809327010E947500D1110AC0F11011C01D
:1003100081E0DF91CF911F910F91FF900C945300DA
:10032000F80181918F01809327010E947500D150BF
:10033000EBCFDF91CF911F910F91FF90089520E0B7
:1003400041E066E271E08DE10E9419018091260191
:1003500081608093250120E041E065E271E08DE15C
:100360000C947201813011F40C949F0120E041E063
:1003700066E271E08DE10E941901809126018E7F75
:100380008093250120E041E065E271E08DE10C946D
:10039000720120E041E066E271E087E00E9419010D
:1003A0008091260185FF09C020E041E066E271E00E
:1003B00087E00E94720181E0089584FF09C020E077
:1003C00041E066E271E087E00E9472018FEF0895DC
:1003D00080E008950F931F93CF93DF938C01C62F76
:1003E00080911F01843009F049C020E041E066E2BD
:1003F00071E087E00E9419018091260186FF44C0C8
:1004000080912001811102C0C091210180E00E94F1
:10041000530081E6809327010E947500DFEFC11130
:1004200023C081E00E94530020E041E066E271E0D9
:1004300087E10E9419018091260180FF13C020E00E
:1004400041E066E271E087E00E9419018091260197
:1004500080648093250120E041E065E271E087E05F
:100460000E94720181E00BC0D09327018FEF0E94A0
:100470007500F80181938F01C150D1CF80E0DF91E9
:10048000CF911F910F91089582E0F9CF9C0190E0E8
:100490002B3F310520F09F5F903181F49FE09295D2
:1004A000907F8FEF860F8F3060F09093250120E0D2
:1004B00041E065E271E084E00C9472012A5F310949
:1004C000E7CF962BF2CF873060F421E030E0A9012E
:1004D00002C0440F551F8A95E2F7CA0181508093EC
:1004E000250120E041E065E271E081E00C947201B9
:1004F000CF93DF93D82FC62F862F0E94630220E070
:1005000041E066E271E08DE10E94190180912601CF
:10051000D13011F584608093250120E041E065E24F
:1005200071E08DE10E947201C73048F481E090E0F3
:1005300001C0880FCA95EAF781508093250120E019
:1005400041E065E271E08CE10E94720181E08093FC
:100550002001DF91CF9108958B7F8093250120E0CA
:1005600041E065E271E08DE10E947201109220018C
:10057000F0CF8150990B25E0289FB001299F700D85
:10058000112460507F4F20E04091230180E10C94C2
:1005900072010F931F93CF9300E011E0CAE020E0B7
:1005A00040912301B8018C2F0E947201CF5F0B5F35
:1005B0001F4FC031A1F7CF911F910F9108950F9355
:1005C0001F93CF93DF931F92CDB7DEB7898301E1ED
:1005D000060F11E1101309C08981809321010F904A
:1005E000DF91CF911F910F91089520E041E0BE016E
:1005F0006F5F7F4F812F0E9472011F5FEBCF21E061
:1006000030E001C0220F8A95EAF72150209325019E
:1006100020E041E065E271E082E00C947201CF934A
:10062000C82F8DEF8C0F833078F48EEF8C0F809372
:10063000240120E041E064E271E083E00E94720165
:10064000C0932301CF91089583E0F1CFCF93DF933F
:10065000EC0120E041E066E271E086E00E941901D1
:1006600080912601877D80932601CA3FD10579F0CC
:10067000C03DD74009F488608093250120E041E027
:1006800065E271E086E0DF91CF910C9472018062A7
:10069000F3CFCF93C82F20E041E066E271E086E01F
:1006A0000E94190180912601897F80932601CC3018
:1006B00079F0C23119F0C1110DC086608093250117
:1006C00020E041E065E271E086E0CF910C94720198
:1006D0008260F4CF8460F2CFCF93DF931F92CDB7C7
:1006E000DEB79FEF980F9D3768F4898320E041E0E3
:1006F000BE016F5F7F4F85E00E9472010F90DF9116
:10070000CF91089581E0F1CF1F93CF93DF93182FFE
:10071000D62FC42F20E041E066E271E080E00E9425
:100720001901809126018064111103C08091250177
:100730008F7B8093250180912501DD23A1F08062CC
:100740008093250180912501CC2379F080618093ED
:10075000250120E041E065E271E080E0DF91CF918A
:100760001F910C9472018F7DEBCF8F7EF0CFCF93D2
:10077000DF93D82FC62F20E041E066E271E080E0F1
:100780000E941901809126018860D11103C08091D7
:100790002501877F8093250180912501C23061F476
:1007A00084608093250120E041E065E271E080E013
:1007B000DF91CF910C9472018B7FF3CFCF93C82F31
:1007C00020E041E066E271E080E00E941901C4305F
:1007D000D8F4C23048F5C13001F180E00E945900E0
:1007E000809126018D7F8093250182E090E00E9418
:1007F0000F0120E041E065E271E080E00E947201BB
:10080000C0931F01CF910895C43039F781E00E9451
:100810005900809126018360E6CF80E00E94590054
:10082000809126018260DFCF81E00E945900809193
:1008300026018E7FF7CFCF9381E08093220180E065
:100840000E94590088E08093250120E041E065E2A4
:1008500071E080E00E9472018FE38093250120E027
:1008600041E065E271E081E00E9472011092250191
:1008700020E041E065E271E082E00E94720183E0E5
:100880008093250120E041E065E271E00E94720161
:1008900082E08093250120E041E065E271E085E09F
:1008A0000E947201CEE0C093250120E041E065E2A4
:1008B00071E086E00E947201C093250120E041E0D2
:1008C00065E271E087E00E94720183E00E94DE032E
:1008D00081E00E94E40084E00E94DE0380E00E9448
:1008E000E40020E041E066E271E087E00E94190147
:1008F0008091260180678093250120E041E065E238
:1009000071E087E00E94720141E061E081E00E94B5
:10091000840361E081E00E94B70385E00E940F0339
:1009200088EE93E00E94260386E00E94490380E25D
:100930000E946C0381E00E94FF0261E081E00E945E
:10094000DF0262E084EF91E00E94460281E00E94B3
:10095000630261E080E00E947802CF910C949F01D5
:10096000CF93DF93C82FD62F0E945F000E946800AC
:1009700086E990E00E940F01D13021F080912201A0
:10098000811102C00E941B04C130D1F060F0C2305E
:1009900041F580E00E94DE0341E061E081E00E94D9
:1009A000840381E009C080E00E94DE0340E060E053
:1009B00081E00E94840383E0DF91CF910C94DE03F9
:1009C00080E00E94DE0341E061E080E00E94840359
:1009D00084E00E94DE0384E690E0DF91CF910C94E6
:1009E0000F0180E00E94DE0341E061E081E0DF91E1
:1009F000CF910C948403CF93DF931F92CDB7DEB7D2
:100A000061E080E00E94B00486E00E94490388E231
:100A10000E946C0380E00E94B90281E00E94E40021
:100A200081E0898361E00E94DF0241E061E0CE0164
:100A300001960E9448010E94C9018823E1F384E6DF
:0C0A400090E00E940F01F1CFF894FFCF6E
:100A4C0020C3C2C1A020C3C2C1A120C3C2C1A22065
:100A5C00C3C2C1A320C3C2C1A420C3C2C1A5010586
:00000001FF
